{
  "contractName": "ProductManager",
  "abi": [
    {
      "anonymous": false,
      "inputs": [
        {
          "indexed": true,
          "internalType": "address",
          "name": "previousOwner",
          "type": "address"
        },
        {
          "indexed": true,
          "internalType": "address",
          "name": "newOwner",
          "type": "address"
        }
      ],
      "name": "OwnershipTransferred",
      "type": "event"
    },
    {
      "anonymous": false,
      "inputs": [
        {
          "indexed": false,
          "internalType": "uint256",
          "name": "_productIndex",
          "type": "uint256"
        },
        {
          "indexed": false,
          "internalType": "uint256",
          "name": "_step",
          "type": "uint256"
        },
        {
          "indexed": false,
          "internalType": "address",
          "name": "productPaymentAddress",
          "type": "address"
        }
      ],
      "name": "ProductStateChanged",
      "type": "event"
    },
    {
      "inputs": [],
      "name": "index",
      "outputs": [
        {
          "internalType": "uint256",
          "name": "",
          "type": "uint256"
        }
      ],
      "stateMutability": "view",
      "type": "function",
      "constant": true
    },
    {
      "inputs": [],
      "name": "owner",
      "outputs": [
        {
          "internalType": "address",
          "name": "",
          "type": "address"
        }
      ],
      "stateMutability": "view",
      "type": "function",
      "constant": true
    },
    {
      "inputs": [
        {
          "internalType": "uint256",
          "name": "",
          "type": "uint256"
        }
      ],
      "name": "products",
      "outputs": [
        {
          "internalType": "string",
          "name": "productUid",
          "type": "string"
        },
        {
          "internalType": "uint256",
          "name": "Quantity",
          "type": "uint256"
        },
        {
          "internalType": "uint256",
          "name": "price",
          "type": "uint256"
        },
        {
          "internalType": "enum ProductManager.ProductState",
          "name": "state",
          "type": "uint8"
        },
        {
          "internalType": "contract ProductPaymentHanler",
          "name": "paymentHandler",
          "type": "address"
        }
      ],
      "stateMutability": "view",
      "type": "function",
      "constant": true
    },
    {
      "inputs": [
        {
          "internalType": "address",
          "name": "newOwner",
          "type": "address"
        }
      ],
      "name": "transferOwnership",
      "outputs": [],
      "stateMutability": "nonpayable",
      "type": "function"
    },
    {
      "inputs": [
        {
          "internalType": "string",
          "name": "_id",
          "type": "string"
        },
        {
          "internalType": "uint256",
          "name": "_price",
          "type": "uint256"
        },
        {
          "internalType": "uint256",
          "name": "_Quantity",
          "type": "uint256"
        }
      ],
      "name": "createProduct",
      "outputs": [],
      "stateMutability": "nonpayable",
      "type": "function"
    },
    {
      "inputs": [
        {
          "internalType": "uint256",
          "name": "_productIndex",
          "type": "uint256"
        }
      ],
      "name": "triggerPayment",
      "outputs": [],
      "stateMutability": "payable",
      "type": "function",
      "payable": true
    },
    {
      "inputs": [
        {
          "internalType": "uint256",
          "name": "_productIndex",
          "type": "uint256"
        }
      ],
      "name": "triggerDelivery",
      "outputs": [],
      "stateMutability": "nonpayable",
      "type": "function"
    },
    {
      "inputs": [],
      "name": "withdraw",
      "outputs": [],
      "stateMutability": "nonpayable",
      "type": "function"
    },
    {
      "inputs": [],
      "name": "renounceOwnership",
      "outputs": [],
      "stateMutability": "nonpayable",
      "type": "function"
    }
  ],
  "bytecode": "0x608060405260006100146100b760201b60201c565b9050806000806101000a81548173ffffffffffffffffffffffffffffffffffffffff021916908373ffffffffffffffffffffffffffffffffffffffff1602179055508073ffffffffffffffffffffffffffffffffffffffff16600073ffffffffffffffffffffffffffffffffffffffff167f8be0079c531659141344cd1fd0a4f28419497f9722a3daafe3b4186f6b6457e060405160405180910390a3506100bf565b600033905090565b611898806100ce6000396000f3fe6080604052600436106100865760003560e01c80637bf12b1c116100595780637bf12b1c146101ee578063800fb83f146102ca5780638da5cb5b146102f8578063cd31831e1461034f578063f2fde38b1461038a57610086565b80632986c0e51461008b5780633ccfd60b146100b6578063715018a6146100cd5780637acc0b20146100e4575b600080fd5b34801561009757600080fd5b506100a06103db565b6040518082815260200191505060405180910390f35b3480156100c257600080fd5b506100cb6103e1565b005b3480156100d957600080fd5b506100e26104f3565b005b3480156100f057600080fd5b5061011d6004803603602081101561010757600080fd5b810190808035906020019092919050505061060d565b604051808060200186815260200185815260200184600281111561013d57fe5b60ff1681526020018373ffffffffffffffffffffffffffffffffffffffff1673ffffffffffffffffffffffffffffffffffffffff168152602001828103825287818151815260200191508051906020019080838360005b838110156101af578082015181840152602081019050610194565b50505050905090810190601f1680156101dc5780820380516001836020036101000a031916815260200191505b50965050505050505060405180910390f35b3480156101fa57600080fd5b506102c86004803603606081101561021157600080fd5b810190808035906020019064010000000081111561022e57600080fd5b82018360208201111561024057600080fd5b8035906020019184600183028401116401000000008311171561026257600080fd5b91908080601f016020809104026020016040519081016040528093929190818152602001838380828437600081840152601f19601f8201169050808301925050505050505091929192908035906020019092919080359060200190929190505050610708565b005b6102f6600480360360208110156102e057600080fd5b8101908080359060200190929190505050610a48565b005b34801561030457600080fd5b5061030d610c5a565b604051808273ffffffffffffffffffffffffffffffffffffffff1673ffffffffffffffffffffffffffffffffffffffff16815260200191505060405180910390f35b34801561035b57600080fd5b506103886004803603602081101561037257600080fd5b8101908080359060200190929190505050610c83565b005b34801561039657600080fd5b506103d9600480360360208110156103ad57600080fd5b81019080803573ffffffffffffffffffffffffffffffffffffffff169060200190929190505050610ef0565b005b60025481565b6103e96110fd565b73ffffffffffffffffffffffffffffffffffffffff166000809054906101000a900473ffffffffffffffffffffffffffffffffffffffff1673ffffffffffffffffffffffffffffffffffffffff16146104aa576040517f08c379a00000000000000000000000000000000000000000000000000000000081526004018080602001828103825260208152602001807f4f776e61626c653a2063616c6c6572206973206e6f7420746865206f776e657281525060200191505060405180910390fd5b3373ffffffffffffffffffffffffffffffffffffffff166108fc479081150290604051600060405180830381858888f193505050501580156104f0573d6000803e3d6000fd5b50565b6104fb6110fd565b73ffffffffffffffffffffffffffffffffffffffff166000809054906101000a900473ffffffffffffffffffffffffffffffffffffffff1673ffffffffffffffffffffffffffffffffffffffff16146105bc576040517f08c379a00000000000000000000000000000000000000000000000000000000081526004018080602001828103825260208152602001807f4f776e61626c653a2063616c6c6572206973206e6f7420746865206f776e657281525060200191505060405180910390fd5b6040517f08c379a000000000000000000000000000000000000000000000000000000000815260040180806020018281038252602581526020018061183e6025913960400191505060405180910390fd5b6001602052806000526040600020600091509050806000018054600181600116156101000203166002900480601f0160208091040260200160405190810160405280929190818152602001828054600181600116156101000203166002900480156106b95780601f1061068e576101008083540402835291602001916106b9565b820191906000526020600020905b81548152906001019060200180831161069c57829003601f168201915b5050505050908060010154908060020154908060030160009054906101000a900460ff16908060030160019054906101000a900473ffffffffffffffffffffffffffffffffffffffff16905085565b6107106110fd565b73ffffffffffffffffffffffffffffffffffffffff166000809054906101000a900473ffffffffffffffffffffffffffffffffffffffff1673ffffffffffffffffffffffffffffffffffffffff16146107d1576040517f08c379a00000000000000000000000000000000000000000000000000000000081526004018080602001828103825260208152602001807f4f776e61626c653a2063616c6c6572206973206e6f7420746865206f776e657281525060200191505060405180910390fd5b600030600254633b9aca008502846040516107eb90611105565b808573ffffffffffffffffffffffffffffffffffffffff1673ffffffffffffffffffffffffffffffffffffffff168152602001848152602001838152602001828152602001945050505050604051809103906000f080158015610852573d6000803e3d6000fd5b5090508060016000600254815260200190815260200160002060030160016101000a81548173ffffffffffffffffffffffffffffffffffffffff021916908373ffffffffffffffffffffffffffffffffffffffff1602179055508360016000600254815260200190815260200160002060000190805190602001906108d8929190611112565b50633b9aca008302600160006002548152602001908152602001600020600201819055508160016000600254815260200190815260200160002060010181905550600060016000600254815260200190815260200160002060030160006101000a81548160ff0219169083600281111561094e57fe5b02179055507fa04c3ac61bf2138ed180c33d5711935e6e6e9100b7312b3bbe5ee8ab7536a66960025460016000600254815260200190815260200160002060030160009054906101000a900460ff1660028111156109a857fe5b60016000600254815260200190815260200160002060030160019054906101000a900473ffffffffffffffffffffffffffffffffffffffff16604051808481526020018381526020018273ffffffffffffffffffffffffffffffffffffffff1673ffffffffffffffffffffffffffffffffffffffff168152602001935050505060405180910390a160026000815480929190600101919050555050505050565b3460016000838152602001908152602001600020600201541115610ab7576040517f08c379a000000000000000000000000000000000000000000000000000000000815260040180806020018281038252602d815260200180611811602d913960400191505060405180910390fd5b60006002811115610ac457fe5b6001600083815260200190815260200160002060030160009054906101000a900460ff166002811115610af357fe5b14610b49576040517f08c379a000000000000000000000000000000000000000000000000000000000815260040180806020018281038252604d8152602001806117c4604d913960600191505060405180910390fd5b600180600083815260200190815260200160002060030160006101000a81548160ff02191690836002811115610b7b57fe5b02179055507fa04c3ac61bf2138ed180c33d5711935e6e6e9100b7312b3bbe5ee8ab7536a669816001600084815260200190815260200160002060030160009054906101000a900460ff166002811115610bd157fe5b6001600085815260200190815260200160002060030160019054906101000a900473ffffffffffffffffffffffffffffffffffffffff16604051808481526020018381526020018273ffffffffffffffffffffffffffffffffffffffff1673ffffffffffffffffffffffffffffffffffffffff168152602001935050505060405180910390a150565b60008060009054906101000a900473ffffffffffffffffffffffffffffffffffffffff16905090565b610c8b6110fd565b73ffffffffffffffffffffffffffffffffffffffff166000809054906101000a900473ffffffffffffffffffffffffffffffffffffffff1673ffffffffffffffffffffffffffffffffffffffff1614610d4c576040517f08c379a00000000000000000000000000000000000000000000000000000000081526004018080602001828103825260208152602001807f4f776e61626c653a2063616c6c6572206973206e6f7420746865206f776e657281525060200191505060405180910390fd5b60016002811115610d5957fe5b6001600083815260200190815260200160002060030160009054906101000a900460ff166002811115610d8857fe5b14610dde576040517f08c379a000000000000000000000000000000000000000000000000000000000815260040180806020018281038252603381526020018061176b6033913960400191505060405180910390fd5b60026001600083815260200190815260200160002060030160006101000a81548160ff02191690836002811115610e1157fe5b02179055507fa04c3ac61bf2138ed180c33d5711935e6e6e9100b7312b3bbe5ee8ab7536a669816001600084815260200190815260200160002060030160009054906101000a900460ff166002811115610e6757fe5b6001600085815260200190815260200160002060030160019054906101000a900473ffffffffffffffffffffffffffffffffffffffff16604051808481526020018381526020018273ffffffffffffffffffffffffffffffffffffffff1673ffffffffffffffffffffffffffffffffffffffff168152602001935050505060405180910390a150565b610ef86110fd565b73ffffffffffffffffffffffffffffffffffffffff166000809054906101000a900473ffffffffffffffffffffffffffffffffffffffff1673ffffffffffffffffffffffffffffffffffffffff1614610fb9576040517f08c379a00000000000000000000000000000000000000000000000000000000081526004018080602001828103825260208152602001807f4f776e61626c653a2063616c6c6572206973206e6f7420746865206f776e657281525060200191505060405180910390fd5b600073ffffffffffffffffffffffffffffffffffffffff168173ffffffffffffffffffffffffffffffffffffffff16141561103f576040517f08c379a000000000000000000000000000000000000000000000000000000000815260040180806020018281038252602681526020018061179e6026913960400191505060405180910390fd5b8073ffffffffffffffffffffffffffffffffffffffff166000809054906101000a900473ffffffffffffffffffffffffffffffffffffffff1673ffffffffffffffffffffffffffffffffffffffff167f8be0079c531659141344cd1fd0a4f28419497f9722a3daafe3b4186f6b6457e060405160405180910390a3806000806101000a81548173ffffffffffffffffffffffffffffffffffffffff021916908373ffffffffffffffffffffffffffffffffffffffff16021790555050565b600033905090565b6105b3806111b883390190565b828054600181600116156101000203166002900490600052602060002090601f016020900481019282601f1061115357805160ff1916838001178555611181565b82800160010185558215611181579182015b82811115611180578251825591602001919060010190611165565b5b50905061118e9190611192565b5090565b6111b491905b808211156111b0576000816000905550600101611198565b5090565b9056fe608060405234801561001057600080fd5b506040516105b33803806105b38339818101604052608081101561003357600080fd5b810190808051906020019092919080519060200190929190805190602001909291908051906020019092919050505083600360016101000a81548173ffffffffffffffffffffffffffffffffffffffff021916908373ffffffffffffffffffffffffffffffffffffffff160217905550826001819055508160008190555080600281905550505050506104e8806100cb6000396000f3fe60806040526004361061004e5760003560e01c8063230b9da3146103305780632986c0e5146103875780634e543f9f146103b2578063a035b1fe146103dd578063c25fffa5146104085761032b565b3661032b57600360009054906101000a900460ff16156100d6576040517f08c379a00000000000000000000000000000000000000000000000000000000081526004018080602001828103825260188152602001807f50726f6475637420697320616c726561647920706169642e000000000000000081525060200191505060405180910390fd5b6000543414610130576040517f08c379a00000000000000000000000000000000000000000000000000000000081526004018080602001828103825260308152602001806104836030913960400191505060405180910390fd5b6000600360019054906101000a900473ffffffffffffffffffffffffffffffffffffffff1673ffffffffffffffffffffffffffffffffffffffff1634600154604051602401808281526020019150506040516020818303038152906040527f800fb83f000000000000000000000000000000000000000000000000000000007bffffffffffffffffffffffffffffffffffffffffffffffffffffffff19166020820180517bffffffffffffffffffffffffffffffffffffffffffffffffffffffff83818316178352505050506040518082805190602001908083835b6020831061022f578051825260208201915060208101905060208303925061020c565b6001836020036101000a03801982511681845116808217855250505050505090500191505060006040518083038185875af1925050503d8060008114610291576040519150601f19603f3d011682016040523d82523d6000602084013e610296565b606091505b505090508061030d576040517f08c379a000000000000000000000000000000000000000000000000000000000815260040180806020018281038252601d8152602001807f5472616e73616374696f6e2077616e2774207375636365737366756c2e00000081525060200191505060405180910390fd5b6001600360006101000a81548160ff02191690831515021790555050005b600080fd5b34801561033c57600080fd5b50610345610437565b604051808273ffffffffffffffffffffffffffffffffffffffff1673ffffffffffffffffffffffffffffffffffffffff16815260200191505060405180910390f35b34801561039357600080fd5b5061039c61045d565b6040518082815260200191505060405180910390f35b3480156103be57600080fd5b506103c7610463565b6040518082815260200191505060405180910390f35b3480156103e957600080fd5b506103f2610469565b6040518082815260200191505060405180910390f35b34801561041457600080fd5b5061041d61046f565b604051808215151515815260200191505060405180910390f35b600360019054906101000a900473ffffffffffffffffffffffffffffffffffffffff1681565b60015481565b60025481565b60005481565b600360009054906101000a900460ff168156fe596f75206d757374207061792074686520657861637420616d6f757420746861742070726f6475637420636f7374732ea26469706673582212207d7253fb6655dd26130f241d60a5a20667a17c6b5d70a95d694d3677fbcdab1364736f6c6343000606003350726f64756374206d75737420626520706169642066697273742c20746f2062652073656e7420666f722064656c69766572794f776e61626c653a206e6577206f776e657220697320746865207a65726f206164647265737343616e2774207075726368617365207468652070726f647563742c2070726f6475637420697320616c726561647920707572636861736564206f722073656e7420666f722064656c697665727943616e2774207075726368617365207468652070726f647563742c206e6f7420656e6f756768206d6f6e65792e596f75277265206e6f742061626c6520746f2072656e6f756e6365206f776e657273686970a264697066735822122076a7fbef93a8fe8cf7331e53cc7d756fce00b1d4b67ea3d356328372a33de40664736f6c63430006060033",
  "immutableReferences": {},
  "source": "// SPDX-License-Identifier: MIT\npragma solidity ^0.6.0.;\n\nimport \"../client/node_modules/@openzeppelin/contracts/access/Ownable.sol\";\nimport \"./ProductPaymentHanler.sol\";\n\n/**\n * @dev Contract for managing creation of new products and handling of the events.   \n */\ncontract ProductManager is Ownable{\n    \n    /// @dev Product states\n    enum ProductState{Created, Paid, Delivered}\n    \n    /// @dev Info we store for every product\n    struct Product{\n        string productUid;\n        uint Quantity;\n        uint price;\n        ProductState state;\n        ProductPaymentHanler paymentHandler;\n\n    }\n    \n    /// @dev Keeping track of products and their states.\n    mapping(uint => Product) public products;\n    uint public index;\n    \n    /// @dev For emiting events whenever product state has been changed.\n    event ProductStateChanged(uint _productIndex, uint _step, address productPaymentAddress);\n    \n    /**\n     * @dev Creating new product and saving it in storage.\n     */\n    function createProduct(string memory _id, uint _price,uint _Quantity) public onlyOwner {\n        ProductPaymentHanler paymentHandler = new ProductPaymentHanler(this, index, _price*1000000000,_Quantity);\n        products[index].paymentHandler = paymentHandler;\n        products[index].productUid = _id;\n        products[index].price = _price*1000000000;\n        products[index].Quantity = _Quantity;\n        products[index].state = ProductState.Created;\n        \n        emit ProductStateChanged(index, uint(products[index].state), address(products[index].paymentHandler));\n        index++;\n    }\n    \n    /**\n     * @dev Purchasing the product and emitting an event about it.\n     */\n    function triggerPayment(uint _productIndex) public payable{\n        require(products[_productIndex].price <= msg.value, \"Can't purchase the product, not enough money.\");\n        require(products[_productIndex].state == ProductState.Created, \"Can't purchase the product, product is already purchased or sent for delivery\");\n        \n        products[_productIndex].state = ProductState.Paid;\n        emit ProductStateChanged(_productIndex, uint(products[_productIndex].state), address(products[_productIndex].paymentHandler));\n    }\n    \n    /**\n     * @dev Shipping the product and emitting an event about it.\n     */\n    function triggerDelivery(uint _productIndex) public onlyOwner {\n        require(products[_productIndex].state == ProductState.Paid, \"Product must be paid first, to be sent for delivery\");\n    \n        products[_productIndex].state = ProductState.Delivered;\n        emit ProductStateChanged(_productIndex, uint(products[_productIndex].state), address(products[_productIndex].paymentHandler));\n    }\n    \n    /**\n     * @dev Withdrawing money (deposits for products' purchases) from this contract.\n     */\n    function withdraw() public onlyOwner{\n        msg.sender.transfer(address(this).balance);\n    }\n    \n    /**\n     * @dev Overriding renounceOwnership function from Wnable contract.\n     */\n    function renounceOwnership() public override onlyOwner {\n        revert(\"You're not able to renounce ownership\");\n    }\n}",
  "sourcePath": "/Users/sparshkhandelwal/Downloads/c language/Blockchain/Supply_chain_DAPP/ethereum-supply-chain-dapp-main/contracts/ProductManager.sol",
  "compiler": {
    "name": "solc",
    "version": "0.6.6+commit.6c089d02.Emscripten.clang"
  },
  "schemaVersion": "3.4.16",
  "updatedAt": "2023-11-27T14:46:13.417Z",
  "networkType": "ethereum",
  "devdoc": {
    "details": "Contract for managing creation of new products and handling of the events.   ",
    "methods": {
      "createProduct(string,uint256,uint256)": {
        "details": "Creating new product and saving it in storage."
      },
      "owner()": {
        "details": "Returns the address of the current owner."
      },
      "renounceOwnership()": {
        "details": "Overriding renounceOwnership function from Wnable contract."
      },
      "transferOwnership(address)": {
        "details": "Transfers ownership of the contract to a new account (`newOwner`). Can only be called by the current owner."
      },
      "triggerDelivery(uint256)": {
        "details": "Shipping the product and emitting an event about it."
      },
      "triggerPayment(uint256)": {
        "details": "Purchasing the product and emitting an event about it."
      },
      "withdraw()": {
        "details": "Withdrawing money (deposits for products' purchases) from this contract."
      }
    }
  },
  "userdoc": {
    "methods": {}
  }
}