{
  "contractName": "ProductPaymentHanler",
  "abi": [
    {
      "inputs": [
        {
          "internalType": "contract ProductManager",
          "name": "_parentContract",
          "type": "address"
        },
        {
          "internalType": "uint256",
          "name": "_idex",
          "type": "uint256"
        },
        {
          "internalType": "uint256",
          "name": "_price",
          "type": "uint256"
        },
        {
          "internalType": "uint256",
          "name": "_Quantity",
          "type": "uint256"
        }
      ],
      "stateMutability": "nonpayable",
      "type": "constructor"
    },
    {
      "inputs": [],
      "name": "Quantity",
      "outputs": [
        {
          "internalType": "uint256",
          "name": "",
          "type": "uint256"
        }
      ],
      "stateMutability": "view",
      "type": "function"
    },
    {
      "inputs": [],
      "name": "index",
      "outputs": [
        {
          "internalType": "uint256",
          "name": "",
          "type": "uint256"
        }
      ],
      "stateMutability": "view",
      "type": "function"
    },
    {
      "inputs": [],
      "name": "parentContract",
      "outputs": [
        {
          "internalType": "contract ProductManager",
          "name": "",
          "type": "address"
        }
      ],
      "stateMutability": "view",
      "type": "function"
    },
    {
      "inputs": [],
      "name": "price",
      "outputs": [
        {
          "internalType": "uint256",
          "name": "",
          "type": "uint256"
        }
      ],
      "stateMutability": "view",
      "type": "function"
    },
    {
      "inputs": [],
      "name": "purchased",
      "outputs": [
        {
          "internalType": "bool",
          "name": "",
          "type": "bool"
        }
      ],
      "stateMutability": "view",
      "type": "function"
    },
    {
      "stateMutability": "payable",
      "type": "receive"
    }
  ],
  "bytecode": "0x608060405234801561001057600080fd5b506040516105b53803806105b58339818101604052608081101561003357600080fd5b810190808051906020019092919080519060200190929190805190602001909291908051906020019092919050505083600360016101000a81548173ffffffffffffffffffffffffffffffffffffffff021916908373ffffffffffffffffffffffffffffffffffffffff1602179055508260018190555080820260008190555080600281905550505050506104e8806100cd6000396000f3fe60806040526004361061004e5760003560e01c8063230b9da3146103305780632986c0e5146103875780634e543f9f146103b2578063879f9c96146103dd578063a035b1fe1461040c5761032b565b3661032b57600360009054906101000a900460ff16156100d6576040517f08c379a00000000000000000000000000000000000000000000000000000000081526004018080602001828103825260188152602001807f50726f6475637420697320616c726561647920706169642e000000000000000081525060200191505060405180910390fd5b6000543414610130576040517f08c379a00000000000000000000000000000000000000000000000000000000081526004018080602001828103825260308152602001806104836030913960400191505060405180910390fd5b6000600360019054906101000a900473ffffffffffffffffffffffffffffffffffffffff1673ffffffffffffffffffffffffffffffffffffffff1634600154604051602401808281526020019150506040516020818303038152906040527f800fb83f000000000000000000000000000000000000000000000000000000007bffffffffffffffffffffffffffffffffffffffffffffffffffffffff19166020820180517bffffffffffffffffffffffffffffffffffffffffffffffffffffffff83818316178352505050506040518082805190602001908083835b6020831061022f578051825260208201915060208101905060208303925061020c565b6001836020036101000a03801982511681845116808217855250505050505090500191505060006040518083038185875af1925050503d8060008114610291576040519150601f19603f3d011682016040523d82523d6000602084013e610296565b606091505b505090508061030d576040517f08c379a000000000000000000000000000000000000000000000000000000000815260040180806020018281038252601d8152602001807f5472616e73616374696f6e2077616e2774207375636365737366756c2e00000081525060200191505060405180910390fd5b6001600360006101000a81548160ff02191690831515021790555050005b600080fd5b34801561033c57600080fd5b50610345610437565b604051808273ffffffffffffffffffffffffffffffffffffffff1673ffffffffffffffffffffffffffffffffffffffff16815260200191505060405180910390f35b34801561039357600080fd5b5061039c61045d565b6040518082815260200191505060405180910390f35b3480156103be57600080fd5b506103c7610463565b6040518082815260200191505060405180910390f35b3480156103e957600080fd5b506103f2610469565b604051808215151515815260200191505060405180910390f35b34801561041857600080fd5b5061042161047c565b6040518082815260200191505060405180910390f35b600360019054906101000a900473ffffffffffffffffffffffffffffffffffffffff1681565b60015481565b60025481565b600360009054906101000a900460ff1681565b6000548156fe596f75206d757374207061792074686520657861637420616d6f757420746861742070726f6475637420636f7374732ea2646970667358221220ad2ab89532a5aa5f662c81686163aa7ea4093d5934940f3f58244c784a92cf8964736f6c63430006060033",
  "immutableReferences": {},
  "source": "// SPDX-License-Identifier: MIT\r\npragma solidity ^0.6.0.;\r\n\r\nimport \"./ProductManager.sol\";\r\ncontract ProductPaymentHanler\r\n{\r\n uint public price;\r\n    uint public index;\r\n    uint public Quantity;\r\n bool public purchased;\r\n    ProductManager public parentContract;\r\n    \r\n    constructor(ProductManager _parentContract, uint _idex, uint _price,uint _Quantity) public {\r\n        parentContract = _parentContract;\r\n        index = _idex;\r\n       price = _price*_Quantity;\r\n      Quantity = _Quantity;\r\n    }\r\n    receive() external payable {\r\n        require(!purchased, \"Product is already paid.\");\r\n   require(msg.value == price, \"You must pay the exact amout that product costs.\");\r\n\r\n     (bool success, ) = address(parentContract).call{value: msg.value}(abi.encodeWithSignature(\"triggerPayment(uint256)\", index));\r\n   require(success, \"Transaction wan't successful.\");\r\n        purchased = true;\r\n    }\r\n}",
  "sourcePath": "C:\\Users\\kshit\\Desktop\\bc4\\Supply_chain_DAPP\\ethereum-supply-chain-dapp-main\\contracts\\ProductPaymentHanler.sol",
  "compiler": {
    "name": "solc",
    "version": "0.6.6+commit.6c089d02.Emscripten.clang"
  },
  "schemaVersion": "3.4.16",
  "updatedAt": "2023-11-27T21:24:48.987Z",
  "devdoc": {
    "methods": {}
  },
  "userdoc": {
    "methods": {}
  }
}